:020000040002F8
:10200000582A0020F12B03008F4F0200E3790200D1
:102010007F900200CF94020023B002000000000075
:102020000000000000000000000000006BC902007A
:10203000A7D20200000000005BD802000BE40200FF
:10204000831A0300DFE5020011F80200E7E5020051
:102050001FE602002FE90200590303006BEB0200A8
:10206000FFFD020003FE02005B110300B92503001F
:102070003F2803004B280300892E03008B2E03000A
:102080008D2E03009D7302008F2E0300912E0300FE
:10209000C9730200932E030035A00200952E0300A1
:1020A000972E0300992E03009B2E03009D2E030004
:1020B0009F2E0300A12E030000000000000000007E
:1020C000A32E0300A52E0300A72E0300A92E0300B4
:1020D000AB2E0300AD2E0300AF2E0300B12E030084
:1020E000B32E0300B52E0300B72E0300000000003E
:1020F00000000000B92E030000000000BB2E03000A
:1021000000000000000000000000000000000000CF
:1021100000000000000000000000000000000000BF
:1021200000000000000000000000000000000000AF
:10213000000000000000000000000000000000009F
:10214000000000000000000000000000000000008F
:10215000000000000000000000000000000000007F
:10216000000000000000000000000000000000006F
:10217000000000000000000000000000000000005F
:10218000000000000000000000000000000000004F
:10219000000000000000000000000000000000003F
:1021A000000000000000000000000000000000002F
:1021B000000000000000000000000000000000001F
:1021C000000000000000000000000000000000000F
:1021D00000000000000000000000000000000000FF
:1021E00000000000000000000000000000000000EF
:1021F00000000000000000000000000000000000DF
:10220000DFF8DC1C00283ED0DFF8B82D126800BFD4
:1022100000BF00BF00BF00BF00BF00BF00BF8A42B9
:102220002FD000BF00BF00BF00BF00BF00BF00BF76
:1022300000BF00BF00BF00BF00BF00BF00BF00BFA6
:1022400000BF00BF00BF00BF00BF00BF00BF00BF96
:1022500000BF00BF00BF00BF00BF00BF00BF00BF86
:1022600000BF00BF00BF00BF00BF00BF00BF00BF76
:1022700000BF00BF00BF00BF00BF00BF00BF00BF66
:1022800000BF401EC3D1704710B504004FF47A70F0
:1022900000FB04F0FFF7B4FF10BDF8B504000D001B
:1022A0002868082801D22F6800E008274FF6FF7041
:1022B00001F092FD060000202860B6B24FF6FF70D4
:1022C00086420ED03800471E00280AD02868411CDC
:1022D000296024F81060300080B201F07DFD060016
:1022E000EBE7F1BD38B5DFF8E01CDFF8E00C008863
:1022F000000450F0030002F098F801F0DBFD040048
:102300002500002D06D0DFF8602D4FF4A1712800C4
:1023100002F0C2FA31BD2DE9F0410400E4B2002C14
:1023200002D0FFF7DFFF4AE010264FF6FF77DFF815
:10233000F48C3A003100404602F004FB0820DFF83C
:10234000E81C0860DFF8E01CDFF8D80CFFF7A5FFF9
:10235000DFF8D40C0168DFF8CC0C01F0FEFC0500BE
:10236000A846B8F1000F06D0DFF8FC2C40F2591156
:10237000404602F091FADFF8B00C0168DFF8A40CD7
:1023800001F01BFD0500062D09D02E00002E06D001
:10239000DFF8D42C4FF4B071300002F07DFA032145
:1023A000DFF8C80C02F0B5FC05002E00002E06D0A8
:1023B000DFF8B42C4FF4B271300002F06DFABDE8D2
:1023C000F08170B582B00400207800281AD002286D
:1023D00023D0032838D0042837D006283ED0072839
:1023E00000F0D780082852D0092800F0AE800B28D2
:1023F00000F0B7800C2843D00D2800F0BE800F28D5
:1024000042D0D2E0DFF8681CDFF8C00B008800047F
:1024100050F0030002F009F8C7E0608802F066FEA1
:10242000217A00916388C0B20200DFF8481CDFF80F
:102430009C0B0088000450F0030002F01CF8A088F8
:10244000DFF8341C0880B0E0AFE0DFF8300C006843
:1024500000906946608801F06CFCA6E004F010F979
:1024600005000E2D0BD0082D09D02E00002E06D011
:10247000DFF8F42B40F29D11300002F00DFA94E0E9
:102480000020FFF748FF90E001F05EFC8DE0207C2B
:1024900010F00100002857D0207A072854D1DFF827
:1024A000E01BDFF8280B0088000450F0030001F067
:1024B000BCFF0823DFF8700B0068421CDFF8C41B68
:1024C000DFF8080B0088000450F0030001F0C4FF9F
:1024D000DFF8540B0068082836D2DFF89C0B008820
:1024E000DFF8401BDFF8402B126821F81200DFF8FC
:1024F000380B0068401CDFF8301B0860DFF8280B41
:102500000168DFF8200B01F058FC0500062D09D00A
:102510002E00002E06D0DFF8502B4FF4E071300073
:1025200002F0BAF9DFF8000B0168DFF8F80A01F0F1
:1025300014FC05002E00002E06D0DFF82C2B4FF4E3
:10254000E271300002F0A8F92FE020690600002EA9
:1025500006D0DFF8142B4FF4E671300002F09CF93E
:1025600023E0A0680600002E06D0DFF8FC2A4FF416
:10257000E971300002F090F917E0A0680600002E23
:1025800006D0DFF8E42A4FF4EC71300002F084F951
:102590000BE0A0680600002E06D0DFF8CC2A4FF42E
:1025A000EF71300002F078F9FFE773BD10B5040059
:1025B000DFF8B42A40F2F511200002F06DF910BDE9
:1025C00010B50400DFF8A02A40F2FF11200002F04D
:1025D00063F910BD38B5DFF8941CDFF8940C04F0F3
:1025E000CAF805002900C9B2DFF8880C04F087FAA0
:1025F0000400002C12D0112C10D0132C0ED00F2C54
:102600000CD0082C0AD043F20140844206D0DFF8F7
:10261000582A40F21521200002F03EF931BD10B5D4
:102620000400FFF7D7FF10BD38B504F0D1FE040059
:102630002500002D06D0DFF8302A40F23121280095
:1026400002F02AF9DFF8302C0121DFF8300C04F019
:10265000E7FE04002500002D06D0DFF80C2A40F22A
:102660003721280002F018F931BDFEB501208DF8A0
:1026700000009DF8000010F00F0050F010008DF8E1
:1026800000000F22DFF8F81B68467CDF04002500FD
:10269000002D06D0DFF8D02940F24B21280002F0AF
:1026A000FBF840F2C13078DF04002500002D06D091
:1026B000DFF8B42940F24E21280002F0EDF8082599
:1026C000002601AF32002900380002F03BF9062055
:1026D000ADF804001820ADF806000620ADF808009B
:1026E0002B20ADF80A0001A87ADF04002700002F94
:1026F00006D0DFF874294FF41671380002F0CCF8D8
:10270000F7BD38B50021DFF8F80C05F0A4F8040097
:102710002500002D06D0DFF8502940F26121280065
:1027200002F0BAF831BDF0B593B002208DF8000088
:1027300041F61510ADF802004EF6EE60ADF804005B
:102740000120ADF806004025002602AF3200290026
:10275000380002F0F7F8DFF8301D02A805F038F96C
:10276000684610909DF8440010F0F00050F0010011
:102770008DF844009DF8440010F00F0050F0200048
:102780008DF844009DF8450010F0F0008DF84500EC
:102790009DF8450010F00F008DF8450002A805F0E7
:1027A00038FA04002700002F06D0DFF8BC2840F2DA
:1027B0007B21380002F070F813B0F0BDF0B585B0A1
:1027C000142500266F4632002900380002F0BAF8BE
:1027D0000020009001208DF8040000200290642069
:1027E0008DF80C009DF80D0010F0F00050F0010085
:1027F0008DF80D009DF80D0010F00F0050F0200036
:102800008DF80D009DF80E0010F0F00050F0010062
:102810008DF80E009DF80E0010F00F0050F0200013
:102820008DF80E009DF80F0010F0F0008DF80F00ED
:102830009DF80F0010F00F008DF80F009DF81000AC
:1028400010F0F00050F001008DF810009DF810001D
:1028500010F00F0050F020008DF810006946DFF8EE
:10286000140A04F024F904002700002F06D0DFF832
:10287000F8274FF42571380002F00EF805B0F0BDCE
:102880002DE9F04F99B008201490002617AF3200C0
:102890001499380002F056F808275FF000080DF18F
:1028A000540942463900484602F04CF817A8040083
:1028B000082020800020A0700120E070207910F016
:1028C000F00050F001002071207910F00F0050F05E
:1028D00020002071607910F0F00050F0010060716C
:1028E000607910F00F0050F020006071A07910F0B6
:1028F000F00050F00100A071A07910F00F0050F02E
:102900002000A07115A80500012028800020A870D3
:102910000220E870687910F0F00050F00100687152
:10292000687910F00F0050F020006871A87910F05D
:10293000F00050F00100A871A87910F00F0050F0DD
:102940002000A87103208DF848005FF048095FF06F
:10295000000AEB4652464946584601F0F3FF0FF293
:10296000CD600090DFF8080C019001208DF8080080
:1029700000208DF8090001208DF80A0017A80390A7
:1029800001208DF8100015A8059000208DF8180082
:10299000002007904C20ADF82400DFF8C40C08900C
:1029A00040F20110ADF8300000208DF832009DF8A3
:1029B00048008DF8330000208DF8360000200E907E
:1029C0009DF82C0010F0F00050F001008DF82C0064
:1029D0009DF82C0010F00F0050F020008DF82C0016
:1029E0009DF82D0010F0F0008DF82D009DF82D00C1
:1029F00010F00F008DF82D009DF8340010F0F0005D
:102A000050F001008DF834009DF8340010F00F00F4
:102A100050F020008DF834009DF8350010F0F000E3
:102A20008DF835009DF8350010F00F008DF8350059
:102A30009DF8430010F0F00050F001008DF84300C5
:102A40009DF8430010F00F0050F020008DF8430077
:102A50009DF8440010F0F00050F001008DF84400A3
:102A60009DF8440010F00F0050F020008DF8440055
:102A70009DF8450010F0F0008DF845009DF84500E8
:102A800010F00F008DF845009DF8460010F0F000A2
:102A900050F001008DF846009DF8460010F00F0040
:102AA00050F020008DF846009DF8470010F0F0002F
:102AB00050F001008DF847009DF8470010F00F001E
:102AC00050F020008DF847009DF83C0010F0F00019
:102AD00050F001008DF83C009DF83C0010F00F0014
:102AE00050F020008DF83C009DF83D0010F0F00003
:102AF00050F001008DF83D009DF83D0010F00F00F2
:102B000050F020008DF83D009DF83E0010F0F000E0
:102B10008DF83E009DF83E0010F00F008DF83E004D
:102B20009DF83F0010F0F00050F001008DF83F00DC
:102B30009DF83F0010F00F0050F020008DF83F008E
:102B40006946DFF84C0C06F035F91390139883466C
:102B5000BBF1000F06D0DFF810254FF44471584642
:102B600001F09AFE19B0BDE8F08F80B5FFF7DBFDEC
:102B7000FFF724FEFFF784FE01BD80B55120DFF88A
:102B8000EC1608606420DFF8E41648600120DFF8E6
:102B9000DC1688600120DFF8D4160873DFF8CC1645
:102BA000DFF8CC0603F0DAFD01BD10B50400DFF854
:102BB000482D40F23131200001F06EFE10BDF0B51D
:102BC00087B01C2500266F4632002900380001F02E
:102BD000B9FE002000905FF4203001905FF4702077
:102BE000029003208DF80C000020ADF80E000020AC
:102BF0008DF8100000200590DFF8140C0690684650
:102C000006F007FB04002700002F06D0DFF8582449
:102C10004FF45271380001F03FFE07B0F0BD38B5F7
:102C200000225FF48031DFF85406006804F017FCDE
:102C300004002500002D06D0DFF82C2440F253318B
:102C4000280001F029FE31BD2DE9FC4F85B00400BC
:102C50000D00109EBDF818008046BDF81400ADF8B8
:102C600000005FF008095FF0000A0DF1040B524606
:102C70004946584601F066FEBDF800001FFA88F884
:102C8000B0EB080004901FFA88F805EB08000390E9
:102C900001A81FFA88F8404410F1020B049A039926
:102CA000584606F0D9FB012006F040FC002805D06C
:102CB0009DF8040050F002008DF80400DFF83C0C91
:102CC0000078002807D101AB08220021200006F07F
:102CD00023F9070005E001AA0821200006F069F9A0
:102CE0000700002F07D118F10108BDF80000414688
:102CF00089B28842B5D2A6F80080380007B0BDE896
:102D0000F08F0021DFF8F82B82F83C100021DFF86B
:102D1000F02B82F83D100021DFF8E42B82F83E1002
:102D200000210800052809D20021DFF8D42B0C234C
:102D300003FB00F31A445160401CF3E77047F0B402
:102D400004000020DFF8B86B96F83E60761E052E72
:102D500002D1042630002CE0DFF8A46BDFF8A07B62
:102D600097F83D705FF00C0C0CFB07F73E44350004
:102D7000AC6069602B706A70DFF8846B96F83E6017
:102D8000761CDFF87C7B87F83E60DFF8746B96F882
:102D90003D60761CDFF8687B87F83D60DFF8606B8C
:102DA00096F83D60052E04D10026DFF8547B87F8A5
:102DB0003D60F0BC7047F0B583B004000026DFF83A
:102DC000400B90F83E00002802D10520060050E09C
:102DD0000127DFF82C0BDFF8281B91F83C100C22A0
:102DE000514308440500E4B2002C17D001A800901C
:102DF0002B789BB26A7892B26968A868FFF724FFC3
:102E00000600132E0AD16878BDF8041080B28842FB
:102E100004D3BDF80400287000200700FFB2002F83
:102E200027D0DFF8DC0ADFF8D81A91F83C100C2222
:102E30005143084400214160DFF8C40A90F83C0087
:102E4000401CDFF8BC1A81F83C00DFF8B40A90F8A7
:102E50003E00401EDFF8A81A81F83E00DFF8A00A05
:102E600090F83C00052804D10020DFF8941A81F87E
:102E70003C003000FEBD7CB504000D0001A80090B0
:102E80000023E4B2220092B22900DFF80409FFF720
:102E9000DBFE0600132E10D12000C0B2BDF80410D6
:102EA00080B2884209D3BDF80430E4B2220092B265
:102EB0002900DFF8DC08FFF742FF002E0ED0082EB5
:102EC0000CD0132E0AD043F20140864206D0DFF820
:102ED000282A40F28D41300001F0DEFC73BD000075
:102EE0000024F400F0B583B00400A079022868D172
:102EF000E679F6B2002E64D101A8009000230122E9
:102F00003100C9B2DFF8880806F092F805002F00FA
:102F1000002F05D0544A40F2A941380001F0BCFC12
:102F2000DFF8E0090078002823D19DF8040080072D
:102F30001FD5DFF8D41925480088000450F003009D
:102F400001F073FA102006F075FD05002F00002F28
:102F500005D0454A4FF49661380001F09DFCDFF83A
:102F6000AC190620FFF787FF0120DFF898190870D9
:102F700027E0DFF890090078002822D09DF80400AF
:102F800080071ED4DFF8881910480088000450F02C
:102F9000030001F04AFA112006F04CFD05002F0055
:102FA000002F05D0304A40F2BA41380001F074FCDD
:102FB000DFF860190620FFF75EFF0020DFF84419F4
:102FC0000870F7BD44210020202B03001C220020A4
:102FD00038B5002006F02EFD04002500002D06D097
:102FE000DFF8142940F2D141280001F055FC06F029
:102FF00030FE04002500002D06D0DFF8FC2840F24A
:10300000D541280001F048FC32DF04002500002DE6
:1030100006D0DFF8E42840F2D941280001F03CFC5A
:1030200031BD0000A03E0020F43F002038B5040070
:103030000D002878022814D004280ED0052802D0CC
:10304000062805D00EE00120DFF8B018087009E06E
:103050000020DFF8A818087004E02800FFF742FFFE
:1030600000E0FFE731BD0000B81C0300EC35002094
:10307000E02303009422030020400020642E03007C
:103080004C23030080230300F0B5C5B00400E4B274
:103090002000002800F08E8001280ED0032825D0C3
:1030A00004283CD0052853D006286AD0072800F011
:1030B0008480082800F0AB80D6E0DFF85C18DFF8E9
:1030C0005C080088000450F0030001F0AEF9052010
:1030D00006F0B0FC05002E00002E06D0DFF8182800
:1030E00040F20D51300001F0D7FBBDE0DFF83018A1
:1030F000DFF828080088000450F0030001F095F97B
:10310000022006F097FC05002E00002E06D0DFF806
:10311000E82740F21351300001F0BEFBA4E0DFF8D5
:103120000418DFF8F8070088000450F0030001F0ED
:103130007CF9042006F07EFC05002E00002E06D04F
:10314000DFF8B42740F21951300001F0A5FB8BE005
:10315000DFF8D417DFF8C4070088000450F003003C
:1031600001F063F9032006F065FC05002E00002E37
:1031700006D0DFF8842740F21F51300001F08CFBAD
:1031800072E0DFF8A817DFF894070088000450F019
:10319000030001F04AF9032006F04CFC05002E0064
:1031A000002E06D0DFF8502740F22551300001F004
:1031B00073FB59E0FFF70CFF56E00820029008204F
:1031C000019001AB17AA02A937A800F0D5FD0500B0
:1031D0002E00002E06D0DFF8202740F235513000B7
:1031E00001F05AFB0198009017AB029A37A9DFF85B
:1031F000400701F08DFE05002E00002E06D0DFF8FE
:10320000F82640F23F51300001F046FB2CE0DFF899
:10321000240700884FF6FF71884224D003A9DFF805
:103220001407008800F02BFE0500052D1BD02E0092
:10323000002E06D0DFF8C02640F24C51300001F0DD
:103240002BFB0DF11D063100DFF8E40601F04AFE0C
:1032500005002F00002F06D0DFF89C264FF4AA614E
:10326000380001F019FBFFE745B0F0BD903E0020AB
:10327000803F0020E83D00201F260200602E030052
:10328000302B0300F0B589B004000D002088012820
:1032900070D010280AD0112825D03B284CD05128B6
:1032A00079D0562857D0572842D0A7E0DFF88816A3
:1032B000DFF868060088000450F0030001F0B5F85C
:1032C000072006F0B7FB06003700002F06D0DFF816
:1032D000282640F26951380001F0DEFAA088DFF8B4
:1032E0005C1608808AE0DFF85816DFF830060088A0
:1032F000000450F0030001F098F80020FFF75BFD98
:103300004FF6FF70DFF8341608800020DFF8F41560
:103310000870112006F08EFB06003700002F06D043
:10332000DFF8D42540F27951380001F0B5FA65E0B4
:103330000120FFF740FD61E01321A08876DF060041
:103340003700002F06D0DFF8B02540F29551380045
:1033500001F0A2FA52E01321A08876DF06003700C0
:10336000002F06D0DFF8902540F29D51380001F083
:1033700093FA43E00021DFF8C405008866DF060009
:103380003700002F06D0DFF8702540F2A251380038
:1033900001F082FA32E06846A11D102206F05CF8C6
:1033A0009DF80000002828D09DF80800042807D0C8
:1033B0009DF80800062803D09DF8080005281CD1B8
:1033C0009DF80000022803D102208DF8100002E0D1
:1033D00001208DF810004FF4C170ADF8140004A95D
:1033E000A088A8DF06003700002F06D0DFF80825E8
:1033F00040F2BD51380001F04FFAFFE709B0F0BDCF
:10340000143E002038B506F08DFD04002500002D87
:1034100006D0DFF8E42440F2D251280001F03CFA53
:10342000002000906946012006F042FE04002500BD
:10343000002D06D0DFF8C0244FF4BB61280001F056
:103440002BFA684606F0F5FE04002500002D06D094
:10345000DFF8A42440F2DC51280001F01DFA31BD50
:1034600038B5DFF8E0240A21082006F08DFF0400BB
:103470002500002D06D0DFF8802440F2E751280017
:1034800001F00AFA31BD0000E029030070B5040024
:10349000E4B22000042809D007281AD00A2802D054
:1034A0000E282FD062E0FFF793FD5FE01321DFF8D5
:1034B0008C04008876DF0500082D09D02E00002E30
:1034C00006D0DFF834244FF4C061300001F0E4F995
:1034D0004CE0DFF8680400884FF6FF71884210D195
:1034E000DFF84C0401F02CFD0500082D09D02E005A
:1034F000002E06D0DFF8002440F20A61300001F00F
:10350000CBF933E0DFF84014DFF810040088000442
:1035100050F0030000F089FFDFF8200400884FF628
:10352000FF71884221D0DFF8240401680120FFF7F1
:10353000A2FCDFF818040068401CDFF810140860D3
:10354000DFF80C040078401CDFF804140870DFF882
:1035500000040078062808D1DFF8F803DFF8EC1340
:1035600008600020DFF8E8130870FFE770BD000076
:10357000AD250200F0B583B000F063FB0400250028
:10358000002D05D0DC4A40F22D61280001F084F9BD
:10359000052500266F4632002900380001F0D2F9D7
:1035A0009DF8000050F001008DF800009DF800002B
:1035B00010F0FD008DF800009DF8000010F0FB00F9
:1035C0008DF800009DF8000010F0F7008DF8000065
:1035D0009DF8000010F08F0050F030008DF80000D2
:1035E0009DF8000010F07F008DF8000007208DF896
:1035F000010010208DF802009DF8030050F001003A
:103600008DF803009DF8030050F002008DF80300D0
:103610009DF8040050F001008DF804009DF80400AE
:1036200050F002008DF80400684600F073FB0400BF
:103630002700002F05D0B04A4FF4C861380001F0D0
:103640002BF9C54800F047FB04002500002D05D0EC
:10365000A94A40F24361280001F01EF9F7BD0000BD
:10366000B02000202DE9F041A8B0A0260027E846B0
:103670003A003100404601F065F9062005000220BD
:103680008DF8000001208DF802008DF80350012014
:10369000ADF81000B148059001208DF879000120A7
:1036A0008DF87A0000208DF87B000020209000200B
:1036B000219001208DF87C0028202290002023906A
:1036C00000208DF87D004FF448602490B4202590B0
:1036D000A3482690A34827906946954801F05BFAD5
:1036E0000400A046B8F1000F05D0834A4FF4CD6125
:1036F000404601F0D1F801218D4801F049FA28B087
:10370000BDE8F08170B582B004009749032006F04F
:103710009FF905002E00002E05D0774A4FF4CF61A7
:10372000300001F0B9F86946002006F0E1FA050022
:103730002E00002E05D0704A40F27B61300001F06F
:10374000ABF89DF80000022801D1012000E0002024
:10375000207073BD38B5002000F0BCFC04002500CB
:10376000002D05D0644A40F28661280001F094F8EB
:1037700006F0CBFE31BD38B53EDF04002500002D3C
:1037800005D05D4A40F29161280001F085F831BD15
:103790007830002010B50400207801282FD00228AE
:1037A00026D0042832D1714871490978084406F0BE
:1037B00044FF6F480078401C6D4908706B486C49A5
:1037C0000978084410F8012C6A495448008800041C
:1037D00050F0030000F033FE64486549097808445E
:1037E000411E0120FFF747FB0020614908700DE0F2
:1037F000414A40F2C161606801F04EF806E03E4A7D
:1038000040F2C561606801F047F8FFE710BD0000B5
:10381000AB2B020030B58BB004A8574991EC060BD6
:1038200080EC060B554800904FF48070019054488E
:1038300002904FF4807003900723524A694604A80F
:1038400006F0ADFE04002500002D05D02A4A40F206
:10385000E661280001F020F80BB030BD80B5FFF71D
:1038600079FFFEF7E1FEFFF7D5FF312006F0F5FE08
:103870000220FEF709FD322006F0EFFE0220FEF7DF
:1038800003FD332006F0E9FE0220FEF7FDFC0A20CE
:1038900006F0E3FE6846FFF735FFFFF7B3FDFFF7DD
:1038A000DFFDFEF7E2FEFEF72CFFFFF7DBFEFFF782
:1038B0005CF9FFF762F9FFF782F9FFF722FAFFF7E9
:1038C00059FE314915480088000450F0030000F00B
:1038D000ACFDFFF7A4F901208DF800009DF8000071
:1038E000FEF719FD06F0D4FD00F001FE0028F9D125
:1038F000FFF741FFF6E70000B81C03003C40002042
:10390000843B0020BE21002088280300A020002046
:1039100078270300A8200020A02803001C220020F4
:10392000F4290300082A0300A8240300CC24030080
:10393000EC35002020400020402C0300BC2100205A
:10394000402B03003C380020502B0300FC200020BB
:103950003D40002098200020C32302009420002036
:1039600089300200C12502008D3402003E40002053
:103970003F400020602B0300B8280300FC320020E9
:10398000FC330020953702001C26030038B50400E4
:103990000025DFF888060078854207DA2000DFF886
:1039A000801651F8251088476D1CF2E731BD80B5AF
:1039B00000230022DFF86C16DFF86C0600F0BFFA77
:1039C000002801D0052804D10121DFF860261170FC
:1039D00003E00021DFF85426117001BD2DE9F0410C
:1039E0008AB004000125A08807F09FF86080207845
:1039F000082808D0C0F0CB800A285ED041D30B281D
:103A000000F09E80C3E0607A002826D1DFF820060F
:103A10000068002810D0DFF818060068E1688842C6
:103A20000AD10020DFF808160860A088DFF8F81532
:103A300008800020E06023E0DFF8F005007800282F
:103A40001ED0A088DFF8E0150988884218D1207AB6
:103A5000062815D1FFF7ABFF12E0607A01280FD1DD
:103A6000DFF8C805007800280AD0A088DFF8B8156C
:103A70000988884204D1207A062801D1FFF797FFF0
:103A800085E0607A002817D1DFF8A40500680028D7
:103A900012D0DFF89C050068E16888420CD1002054
:103AA000DFF88C150860DFF87C050068401EDFF841
:103AB000741508600020E06069E0DFF878050078A0
:103AC00000282FD04FF6FF7007F029FE4FF6FF7148
:103AD000884227D14FF6FF7007F028FE4FF6FF719E
:103AE00088421FD10020DFF84C15087014260027EB
:103AF0000DF114083A003100404600F023FF0C207D
:103B00008DF814004FF6FF70ADF818004FF6FF70F7
:103B1000ADF81600002005002000FFF737FF05A8CC
:103B2000FFF734FFDFF804050078002807D0A088ED
:103B3000DFF8F4140988884201D1FFF738FF26E046
:103B4000DFF8F0040078002820D00020DFF8E4142B
:103B5000087014260027E8463A003100404600F07D
:103B6000F1FE0D208DF800004FF6FF70ADF8040057
:103B70004FF6FF70ADF80200A0680290002005002B
:103B80002000FFF703FF6846FFF700FFFFE7EDB2F5
:103B9000002D02D02000FFF7F9FE0AB0BDE8F08149
:103BA00038B50400002C14D0207802280ED1207AD9
:103BB000012801D1012500E000252A00D2B2DFF85A
:103BC00078040178608801F0EAFAFFE72000FFF747
:103BD000DDFE31BD10B504002000FFF7D7FE10BD9B
:103BE00010B504002078002807D10122DFF848042E
:103BF0000178608801F0D3FAFFE72000FFF7C6FEE6
:103C000010BD38B504000D00DFF83004007800283E
:103C100008D0200006F010FE200008F01CF820005C
:103C200008F0E9FA31BD4FF6FF70DFF8FC130880A9
:103C30000020DFF8FC1308601820DFF8FC13087080
:103C4000704710B508F0F8FC0400002C01D00320E8
:103C500040E007F0BAFB0400002C01D0032039E05B
:103C600007F0D6FF0400002C01D0032032E009F059
:103C700091F90400002C01D003202BE008F088FA11
:103C80000400002C01D0032024E009F044FB0400D0
:103C9000002C01D003201DE006F0A5FE0400002C3E
:103CA00001D0032016E0FFF7BEFF01F04CFADFF869
:103CB00088130870DFF880030078182801D10320EA
:103CC00008E00020DFF8641308700120DFF86C13AF
:103CD0000870002010BD0100DFF8600300780028A4
:103CE00001D1082015E0DFF834030078032801DB58
:103CF00004200EE0DFF82803DFF82023127840F8D4
:103D00002210DFF818030078401CDFF81023107031
:103D10000020704738B50400DFF820030078002841
:103D200001D1082004E0200008F00FF80500280069
:103D300032BD38B504000D00002D04D0290020004C
:103D400080B208F022F831BD80B5DFF8F0020078CB
:103D5000002801D008F095FA01BD38B504000D0027
:103D6000DFF8D8020078002801D1082003E02900FC
:103D7000200007F090F832BDF8B504000D001600E1
:103D80001F00DFF8B8020078002801D1082013E0F6
:103D9000002C01D1002E07D0002C01D0002D03D023
:103DA000002E03D0002F01D10E2005E03B00320091
:103DB0002900200007F03FF8F2BD38B504000D00DF
:103DC000DFF878020078002801D1082003E02900FC
:103DD000200006F0C0FF32BD10B50400DFF85C0221
:103DE0000078002802D14FF6FF7003E0200080B277
:103DF00007F095FC10BD2DE9FC4704000D001600EE
:103E00001F00DFF838020078002801D1082034E0D4
:103E1000002E01D10E2030E0002F01D10E202CE029
:103E20003888401E04213A88D21C121A90FBF1F007
:103E300001FB00203988884201D007201DE05FF097
:103E400008085FF00009EA464A464146504600F03D
:103E500079FD3888C01C8010ADF800008DF8025044
:103E600001966A462900C9B2200080B207F065FCBD
:103E7000BDF8001089B289003980BDE8F68738B5F1
:103E800004000D005020ADF800006B462A00072109
:103E9000200080B2FFF7AFFF32BD10B504006748C5
:103EA0000078002801D1082003E0200080B206F04D
:103EB00088FE10BDF0B585B060480078002801D1BB
:103EC00008203AE001205B4908704FF6FF7007F0C8
:103ED00026FC0400A4B24FF6FF70844218D10020E3
:103EE00054490870142500266F4632002900380016
:103EF00000F028FD0C208DF800004FF6FF70ADF8A3
:103F000004004FF6FF70ADF802006846FFF73EFD73
:103F1000A4B24FF6FF7084420ED0200080B2FFF7AB
:103F2000BCFF0500002D01D0032006E0200080B278
:103F300007F0F5FB0400EBE7002005B0F0BD2DE92C
:103F4000F34F83B014001D003C480078002801D1D5
:103F5000082060E04FF6FF7007F0E1FB060000204C
:103F600000903748D0E90023CDE90123684602904C
:103F700001AA0621300080B207F0DFFB07005FF0E6
:103F800000085FF0FF394FF6FF7A4FF6FF7B072FEF
:103F900001D105203FE0002F01D0052F1CD1052FB6
:103FA00001D1002000900098404502D3009880463F
:103FB000B2460098484502D200988146B346300088
:103FC00080B207F0ACFB060001AA0621300080B2E7
:103FD00007F0B3FB0700DEE7B6B24FF6FF7086428C
:103FE00016D1002007000398002802D00398A0F8FB
:103FF00000A00498002802D00498C0F80080002C8B
:1040000001D0A4F800B0002D04D0C5F8009001E064
:1040100003200700380005B0BDE8F08F4B400020BA
:10402000043F00200840002022400020494000209A
:10403000044000204A4000204C400020484000201E
:10404000002E030038B504000D002900200022686E
:104050001268904731BD10B50400200021684968FE
:10406000884710BD01727047007A70470121417284
:104070007047407A70470000F0B4020052E8005FD9
:1040800045EA010642E8006797F0000FF6D13C00D0
:1040900030002B00F0BC7047F0B4020052E8005F23
:1040A00005EA010642E8006797F0000FF6D13C00F0
:1040B00033002800F0BC704710B504000121200037
:1040C000FFF7DAFF10BD10B5040000212000FFF754
:1040D000E3FF10BD38B50400FF20DFF898178860B3
:1040E0000020DFF8901708600020DFF8881748608C
:1040F0000020DFF88017C1F818040020DFF87417DB
:10410000C1F814040020DFF86C1781F81C04DFF8F4
:10411000680709F043FA0100002901D0080013E004
:10412000DFF85807DFF85827801AC208002003007C
:10413000934208D2DFF84C070C2505FB03F5284411
:1041400003805B1CF4E7002032BDDFF83007DFF8A6
:104150003017401AC008704770B504000D00EDB26A
:10416000002D17D0FFF7F1FF0100002002008A4266
:104170000ED2DFF810070C2303FB02F30344588828
:104180002668B04202D12260002004E0521CEEE713
:10419000052000E0002070BD11B581B00C002100A9
:1041A000C9B201A8FFF7D8FF002806D1DFF8D8066A
:1041B000019900EBC100006800E0002016BD10B4BA
:1041C0000200DFF8C40600EBC203C9B2012906D021
:1041D00011D3032909D005D3042909D00BE0022407
:1041E00020000AE00424200007E01C79200004E0FD
:1041F0005C79200001E000242000C0B210BC7047B0
:10420000FEB5DFF88806FFF757FFDFF88406FFF7F3
:1042100053FFDFF860064468DFF858068568DFF86A
:10422000540615EA040100EB810010F10C06307809
:1042300010F0030F10D1641C30683168C1F389118C
:1042400011EB90500419DFF82C0615EA040100EB7D
:1042500081000C300600EAE700200700022F0CD294
:10426000DFF8100615EA040100EB8100C06869461A
:1042700041F82700641C7F1CF0E7009810F0030051
:10428000012807D002280AD10098800DC01C14EB29
:10429000900404E00098C0F383100419FFE7DFF8EE
:1042A000F005FFF710FF002802D0DFF8C8154C60BA
:1042B000F7BDF0B4049C050CDFF8B8655F1C27401F
:1042C00006EB8706ADB2F560DFF8A86514EA0307D0
:1042D00006EB87060C360709D6F800C067F3820C98
:1042E000C6F800C0376860F3C5073760376862F307
:1042F00089173760376861F39F2737600127D6F841
:1043000000C067F3010CC6F800C0F0BC70472DE98F
:10431000F84F04000D00A61C02275FF001080020E2
:104320008DF80000684609F08BFADFF84805006850
:104330002860DFF840058068401CDFF83815096800
:10434000401ADFF83015496811EB000917EB060A2F
:10435000D1450FD2FFF754FFDFF818058068401CE5
:10436000DFF810150968401ADFF8081549680818C1
:104370008146EDE7DFF8FC04DFF8F8140968DFF8A0
:10438000F4249268114000EB810010F10C0BDBF873
:10439000000050F00300CBF80000DFF8D8040068FC
:1043A0003018DFF8D01408609DF8000009F04EFACC
:1043B0004046C0B2BDE8F28F2DE9FC4704000D0075
:1043C00016001F00DFF8AC04D0F8088001A93800FF
:1043D000FFF79DFF00281CD0019810F10209002072
:1043E0008246BA450DD2DFF88C0418EA090100EBC9
:1043F000810056F82A10C16019F101091AF1010A69
:10440000EFE7CDF80080019B3A0029002000FFF77C
:1044100050FFDFF8600490F81C04002803D000F07F
:1044200066F80028FBD1BDE8F38738B504000D001D
:104430000023002229002000FFF7BEFF31BD70B528
:1044400082B004000D001600009601236A46290080
:104450002000FFF7B1FF73BDF0B583B004000D007D
:1044600016001F000096019702236A4629002000CB
:10447000FFF7A2FFF7BD2DE9F04184B004000D0065
:1044800016001F00DDF8288000960197CDF80880FF
:1044900003236A4629002000FFF78EFFBDE8FF8155
:1044A0002DE9F04385B004000D0016001F00DDF873
:1044B0003080DDF8349000960197CDF80880CDF873
:1044C0000C9004236A4629002000FFF775FF05B011
:1044D000BDE8F083DFF89C034068DFF898130968B3
:1044E000884201D1012000E00020C0B270472DE9D0
:1044F000F04F8BB0FFF7EEFF002801D000205AE10B
:104500000020DFF87013C1F81804BFF34F8FDFF8F5
:1045100064034668DFF85C0380680090DFF85403AA
:104520000099314000EB810010F10C0400255FF090
:10453000000900200790207810F0030F0FD1761C9F
:1045400020682168C1F3891111EB90508619C94880
:104550000099314000EB81000C300400EBE70020B3
:104560000700022F0BD2C3480099314000EB8100B5
:10457000C06803A941F82700761C7F1CF1E7039867
:1045800010F00300022840F082800398800D09900B
:104590000398800D502803DA03985FEA905801E0F1
:1045A0005FF05008039868F39F50039018F10800DB
:1045B00008900398C0F3C20007900899AE4808F02D
:1045C000F3FF0500002D00F0B580280009F053F836
:1045D0004B46082203A9280009F0BEF819F1080982
:1045E0000098401C00993140401A800001900198C9
:1045F00040453AD20198002807D09E4800993140A2
:1046000000EB81000C30069001E0A2480690019872
:10461000002802D0DDF804A000E0C246019800287E
:1046200002D0DFF870B201E05FF0000B01980028C3
:1046300003D00198B8EB000000E000208DF80900DD
:104640004B465FFA8AFA52460699280009F084F828
:1046500059FA8AF9BBF1000F14D04B469DF8092096
:104660005946280009F078F80CE08248009931405A
:1046700000EB810010F10C0A4B46424651462800DF
:1046800009F06AF80998C01C16EB900652E00398EE
:1046900010F00300012841D10398C0F383100628CD
:1046A00003DA0398C0F3831000E00620039960F357
:1046B000891103910398C0F3831010F10208039845
:1046C000C0F3C20007905FEA88016B4808F06CFFF6
:1046D0000500002D2ED0280008F0CDFF4B46082203
:1046E00003A9280009F038F819F10809002007008B
:1046F0000398C0F3831087421CD24B4604225D48C6
:104700000099314000EB810010F10C01280009F004
:1047100023F8761C19F104097F1CE9E7039810F0CF
:104720000300032806D15348D0F81804002801D10B
:10473000002040E0002D37D04E48D0F810844D487E
:10474000D0F81804002803D0280008F09BFF2BE0C5
:10475000B8F1000F14D05FF0000A4046FFF789FC63
:10476000002801D0012082465FFA8AFABAF1000FD0
:1047700003D029004046FFF765FCD8F80480E7E73E
:10478000280008F07FFF00208DF8080002A809F03B
:1047900057F83848D0F81804002801D13548466049
:1047A0009DF8080009F052F8FFF794FE10F00100A0
:1047B00090F00100C0B20BB0BDE8F08F70B50020E2
:1047C00004000A2C18DA2B48D0F810040500012048
:1047D0000600002D09D02800FFF746FCA04202D1B8
:1047E0000020060001E06D68F3E7F6B2002E01D06C
:1047F000200003E0641CE4E75FF0FF3070BD70B59B
:1048000004000D00FFF7DAFF060016F1010F01D1D9
:1048100030001AE030000100C9B22000FFF722FC8E
:104820001448D0F81004002805D11248C0F81044EC
:104830000020606008E00F48D0F810044068606015
:104840000C48D0F810044460300070BD10B5094821
:10485000D0F810440120074981F81C04002C07D02F
:104860002000FFF703FC2000FFF7F5FB6468F5E785
:1048700010BD0000582A00201C2A0300B41F0300AA
:10488000641F0300E0210020641F0300702E00203D
:104890006C2E0020642A002070B584B004000D0046
:1048A00016002800ADF80000019602946A46002127
:1048B00044F2010008F0D2FF7FBD10B489B001239B
:1048C0008DF800309DF800301D4B18601C4B59606E
:1048D0001B4B9A60030044F201041B1B0ED05B1EAD
:1048E0001DD1174BDA60164BDB681B88144CA36193
:1048F000134BDB685B68124CE36110E0104B1A61EC
:104900000F4B1B699B680E4C63610D4B1B691B8829
:104910000B4CA3610A4B1B695B68094CE36101AB5B
:10492000074C94EC080B83EC080B72B69DF8003032
:10493000002BFBD162B609B010BC7047000000002C
:10494000CC3C002062F30F2262F31F42401810F0AB
:10495000030308D0C91A1FD3DB0748BF00F8012D95
:1049600028BF20F8022D130030B414461546103924
:1049700028BF20E93C00FAD8490728BF20E90C00ED
:1049800048BF40F8042D890028BF20F8022D48BFF9
:1049900000F8012D30BC7047C91818BF00F8012D70
:1049A000CB0728BF00F8012D704790F8D60070475C
:1049B00001000020062806D20A5C002A01D001204E
:1049C00002E0401CF6E700207047C0B2401C052101
:1049D00090FBF1F201FB1200C0B27047CA7B012AC2
:1049E00002D18A88A0F8C820704770B504000D0075
:1049F000002084F8D400A888B4F8C810884211D1E7
:104A0000207900280ED10121200000F082F9060053
:104A1000002E07D0D4F8D000002803D03000D4F8FE
:104A2000D010884770BD70B504000D00287A0028AA
:104A300012D1E078FFF7C9FF0100C9B2200000F0F1
:104A400068F90600002E07D0D4F8D000002803D063
:104A50003000D4F8D010884770BD80B5002008F031
:104A6000E5FF02BD38B504000D0014F12600FFF784
:104A70009FFF0100EDB2012D06D019D3032D0DD0FB
:104A800007D3042D0FD013E0A079084201D00120F4
:104A90000FE0E079084201D002200AE0207A0028E5
:104AA00001D0032005E0607A002801D0042000E056
:104AB000002032BD02000120907012F125004860F4
:104AC0000120087000208881002048810020704764
:104AD00002000220907012F1250048600120087049
:104AE00010698881D06848810020704770B5040043
:104AF0000D0060696881A069A881607900281AD0DA
:104B000094F8D400002816D12000FFF74EFF0028AB
:104B100011D002202872042084F83300002114F1FF
:104B2000300009F07AFB0600002E01D0300005E0CD
:104B30000520A07001E00320A070002070BD70B5BA
:104B400004000D00E0696881206AA881607900286E
:104B50001AD094F8D400002816D12000FFF725FFC2
:104B6000002811D002202872042084F8330000218C
:104B700014F1300009F051FB0600002E01D0300086
:104B800005E00620A07001E00420A070002070BDA8
:104B900080F8241070472DE9F84F04000D00002D17
:104BA00001D0002C01D10E20B1E0012020700020A6
:104BB000E070201D15F1780191EC080B80EC080BDA
:104BC000002084F82400D5F89800C4F8CC00D5F86B
:104BD0009C00C4F8D0004FF6FF70A4F8C8005FF046
:104BE0000709002614F12507320049463800FFF76F
:104BF000A9FE3C275FF0000814F1300B4246390053
:104C00005846FFF79FFE287884F83000A87884F88B
:104C10003200E87884F83300687884F83100D5E908
:104C2000040114F14002C2E90001D5E9020114F1C6
:104C30003802C2E90001D5E9060114F14802C2E9CF
:104C4000000195F82D0084F85D00686A00281BD0EB
:104C500014F16C00606514F178006067686A008880
:104C6000616D0880686A8088616D88800020616D50
:104C70008988884208D2696A8968095C04EB000265
:104C800082F87810401CF2E7A86A002824D014F1BA
:104C9000A400C4F8A00014F19800A06514F1A400C9
:104CA000A16D8860A86A8088A16D8880A86A008844
:104CB000A16D08800020A16D8988884208D2A96A68
:104CC0008968095C04EB000282F8A410401CF2E73A
:104CD00095F82C0084F85C00286A00280AD014F1AA
:104CE000C4002065286A4088216D4880286A0088B1
:104CF000216D08806868002801D06868606315F13C
:104D00003C0114F1300009F088FA82465046BDE8B3
:104D1000F28F2DE9F04385B004000D0020780028C3
:104D200001D10820A1E0E570FFF797FE002803D02D
:104D300001206070002098E007275FF0000814F160
:104D40002509424639004846FFF7FCFDA0790028B6
:104D500002D0E07801280BD0E079002802D0E0787A
:104D6000012805D0E079002811D0E07802280ED182
:104D7000D4F8CC00002807D0012084F82C000820AB
:104D8000D4F8CC10884702E0002084F82C002900D9
:104D9000C9B22000FFF766FEE070D4F8CC0000280E
:104DA00017D0E078032802D0E078042811D1607988
:104DB00000280ED094F8D40000280AD1002084F8EE
:104DC000D600012084F8D5000720D4F8CC108847FD
:104DD00002E0002084F8D50010275FF00008E946C3
:104DE000424639004846FFF7ADFD00208DF800002F
:104DF00000208DF80800E07800281ED002280AD094
:104E000003D3042813D00CD31AE069462000FFF71F
:104E100051FE060014E069462000FFF759FE060027
:104E20000EE069462000FFF761FE060008E06946D3
:104E30002000FFF784FE060002E00020A070FFE7DC
:104E4000E078002808D094F82410684673DF060044
:104E5000002E01D0300008E0D4F8CC00002803D0A8
:104E6000A078D4F8CC108847002005B0BDE8F083C6
:104E700070B504000D002E002088102804D01128E1
:104E800007D01B280AD00EE021003000FFF7A6FD56
:104E900009E021003000FFF7A8FD04E02100300008
:104EA000FFF7C1FDFFE770BDF8B504000D002E004F
:104EB0002000801E012814D87078002810D000200F
:104EC0007070F1783000FFF724FF0700002F07D043
:104ED000D6F8D000002803D03800D6F8D010884784
:104EE000FFE7F1BDF8B504000D0094F82C00002890
:104EF00001D108200BE0002084F82C00072614F1D3
:104F0000250732002900380004F0A6FA0020F2BD7F
:104F100030B40400029D94F8D500002801D1082087
:104F20000CE0002084F8D50055EA0200002801D0EA
:104F3000012000E0002084F8D600002030BC70473B
:104F400038B5040074DF012084F8D400002084F810
:104F5000D600062084F83300002114F1300009F057
:104F60005CF90500002D01D028000FE0E178200059
:104F7000FFF7CFFE0500002D07D0D4F8D0000028A1
:104F800003D02800D4F8D0108847002032BDFEE7B7
:104F900038B50400DFF85802406CC04309F09DF9B1
:104FA0000500ADB24FF6FF70854215D0DFF8400224
:104FB000ADB200EB450084800123220092B28D49FE
:104FC0008D4809F09FF90123220092B28B498A484B
:104FD00009F098F9012000E0002032BD10B582B040
:104FE00004000020009023009BB21D2283498248C8
:104FF00009F098F913BD10B504000023220092B205
:105000007C497D4809F07EF910BD10B592B0784812
:10501000806C7749496C31EA00027749684609F0AB
:10502000CEF900240098844207D2684600EB440081
:105030008088FFF7D3FF641CF4E712B010BD6C4901
:105040000968C14011F001007047694909680122EF
:1050500082401143664A1160704770B504000D002C
:105060002088102804D011281DD01A281FD03CE019
:10507000FFF7CBFFA088FFF78BFF002805D1604A20
:10508000E5210420FFF708FC0CE0E07B022801D1B9
:10509000012600E000263300DBB2A28859495648B9
:1050A00009F030F921E0A088FFF7A5FF1DE0207A84
:1050B000C0B20009C0B2022801DB012300E00023D6
:1050C000DBB2A28850494C4809F01CF9207AC0B2E2
:1050D0000009C0B2032801DB012300E00023DBB29A
:1050E000A2884A49444809F00DF970BD38B504005A
:1050F0000025220092B23E48416C3F4809F047F932
:1051000000280CD0220092B23948C16C3A4809F00C
:105110003EF9C0B2002801D0022500E00125280098
:10512000C0B232BD10B50400220092B23048016D09
:10513000314809F02CF910BD80B52D494A6C2E4933
:1051400009F03DF901BD10B50024E4B2182C0EDAC7
:105150002000C0B2FFF773FF002806D12000C0B2C4
:10516000FFF773FF2000C0B202E0641CEDE71820D7
:1051700010BD38B504000D002800C0B2FFF75FFF76
:1051800000280AD0220092B21948EDB200EB850047
:10519000816D194809F0FBF800E0002032BD70B5C0
:1051A00004000D0016002800C0B2FFF748FF0028D9
:1051B0000CD03300DBB2220092B20D48EDB200EB0E
:1051C000850010F158010C4809F09CF870BD10B52D
:1051D00004002000C0B2FFF732FF002805D00448C9
:1051E000E4B200EB8400806D00E0002010BD000000
:1051F00084370020CC37002088370020C8370020B3
:1052000000200300D0370020D4370020D8370020FA
:1052100010F00300002801D1012000E00020C0B2FE
:1052200070470000F0B4020052E8005F45EA010652
:1052300042E8006797F0000FF6D13C0033002800E9
:10524000F0BC7047F0B4020052E8005F05EB0106C5
:1052500042E8006797F0000FF6D13C0033002800C9
:10526000F0BC7047F0B4020052E8005F05EB0106A5
:1052700042E8006797F0000FF6D13C0030002B00A9
:10528000F0BC7047F0B4020052E8005FA5EB0106E5
:1052900042E8006797F0000FF6D13C0030002B0089
:1052A000F0BC704710B5040001212000FFF7BAFFE1
:1052B00010BD38B504000025042D0DD2DFF8740BA5
:1052C00050F82500002805D02000DFF8681B51F8B1
:1052D000251088476D1CEFE731BD0278012A09D0FF
:1052E0003BD3032A14D008D3052A2AD020D3062A78
:1052F00030D032E000220A702FE001220A700289C9
:105300008A818288CA81C2688A6000220A7424E085
:1053100002220A7002898A818288CA81C2688A60F0
:10532000827D062A01D1012200E000220A7414E0E5
:1053300003220A70C2888A810289CA81C2688A608F
:105340000BE004220A70C2888A810022CA810022EE
:105350008A6002E005220A70FFE77047884205D2A2
:10536000006810F1010F01D0012000E00020C0B260
:105370007047418800EB81000C30704738B504005D
:105380000D002000FFF7F5FF854201D202200AE060
:10539000A0884FF6FF71884202D02088002801D1F2
:1053A000012000E0002032BD10B50400002C0DD01B
:1053B000DFF8AC0BC068844208D3DFF8A40B0069A7
:1053C000A04203D32000FFF723FF00E00020C0B27B
:1053D00010BD0100002904D00868DFF8882B904236
:1053E00001D003200BE04868DFF8542C801A03D06A
:1053F000401E03D1012002E0002000E0032070479E
:1054000001000020B0F5806F08D251F8202012F181
:10541000010F01D0002002E0401CF3E7012070479B
:10542000DFF8202C80B2142303FB00F31A44128906
:105430005118DFF8102C80B2142303FB00F31A4438
:105440005289511889B2B1F5806F01DA012000E06C
:105450000020C0B2704730B402000A2000239BB283
:10546000022B1CDADFF8DC4B9BB2142505FB03F59D
:105470002C4464688C4210D2DFF8C84B9BB21425D0
:1054800005FB03F52C4464684FF480552C44A1427D
:1054900003D200242000138001E05B1CDFE730BC56
:1054A00070472DE9F84306000C0015004FF48050BA
:1054B00006EB0007083602202080B046390040463F
:1054C000FFF74CFF00282ED039004046FFF756FF6B
:1054D00081465FFA89F9B9F1000F0CD1DFF82C0C85
:1054E0000068D8F80810884212D2D8F80800DFF80F
:1054F0001C1C08600CE0002D01D0012028705FFA10
:1055000089F9B9F1020F03D14FF4806020800AE0DD
:105510002088B8F80210C91C081820804046FFF700
:1055200028FF8046CAE7BDE8F1830289CB1C9A18A0
:1055300002814289521AD21E4281704780B50020F2
:1055400000900823DFF8C82BDFF8C80B0168DFF8EC
:10555000100A08F0FEF902BD10B582B00400002068
:1055600000900823DFF8B02B2100DFF8F40908F0E1
:10557000F0F916BD2DE9F04104000D000026E71CEE
:10558000BFB240F2FE30874201DB092039E05FF014
:1055900000081FFA88F8B8F1020F2CDADFF8A40A25
:1055A0001FFA88F8142101FB08F1405C00281FD184
:1055B000390089B2404680B2FFF732FF002817D089
:1055C00001200600A5F80080DFF8780A1FFA88F8A5
:1055D000142101FB08F1084440893818DFF8641AE7
:1055E0001FFA88F8142202FB08F21144488102E0F5
:1055F00018F10108CDE7F6B2002E01D0002000E03E
:105600000720BDE8F08110B4DFF8382A89B21423EE
:1056100003FB01F31A445289121AD21EDFF8243A0E
:1056200089B2142404FB01F423445A8110BC70474E
:1056300080B50121DFF8D40AFFF714FE02BDF8B5EA
:1056400004000D00DFF8FC09A4B2142101FB04F1F1
:10565000084440684FF4805100EB01062F68002F8A
:1056600004D03800FFF785FE070009E0DFF8D40911
:10567000A4B2142101FB04F108444068083007007B
:1056800031003800FFF76AFE002813D031003800DF
:10569000FFF774FE002803D0022809D003D3EFE7F8
:1056A0002F60012007E03800FFF763FE0700E7E7FF
:1056B000002000E00020F2BD38B504000D00606855
:1056C000FFF772FE002815D02089DFF8481C0989F1
:1056D00088420FD120686168896888420AD1616870
:1056E0002800FFF7B8FE002801D1012000E00020CB
:1056F000C0B21EE0002028802888022818DA002086
:10570000009069462888FFF79AFF00280CD000997E
:10571000886822689042F4D100986060DFF8F40B4A
:1057200000892081012004E02888401C2880E3E7CC
:10573000002032BDF8B504000D0016001F00DFF890
:10574000D80B0078002801D1022034E0002E01D0CF
:10575000002F01D105202EE0B88802282ADADFF8D0
:10576000E408B98814225143405C00281ED1390056
:10577000B888FFF764FF002816D03968002C03D0E2
:10578000888822889042F2D1002D03D008882A8888
:105790009042ECD18868306038687060DFF8740B34
:1057A00000893081002006E000203860B888401C65
:1057B000B880D1E70A20F2BDF8B504002100DFF877
:1057C000CC0C006808F0D1FE05001C2600273A002A
:1057D00031002800FFF7B6F82800F2BD10B504002C
:1057E0002100DFF8A80C006808F0CEFE10BD10B54F
:1057F00004002100DFF8940C006808F0D3FE10BD0F
:1058000010B504002100DFF8840C006808F0D9FE10
:1058100010BD80B50121DFF8C40CFFF733FD00286F
:1058200001D0012000E00020C0B202BD2DE9F04708
:1058300000240025032600275FF000081FFA88F8DF
:10584000B8F1030F80F2C480DFF81407C0681FFAB4
:1058500088F84FF4805101FB08F100EB010948463C
:10586000FFF7B7FD82465FFA8AFA504600284ED00D
:10587000012876D0032840F0A8804846FFF7C0FDF5
:10588000002830D0DFF88C08006800281ED00220E5
:10589000DFF8BC1AADB2142202FB05F28854DFF81F
:1058A000B00AADB2142101FB05F10844C0F8049020
:1058B0000220DFF89C1AADB2142202FB05F211445B
:1058C0000881DFF8500A45806D1C09E0DFF84408C4
:1058D000C0F800900220DFF83C1888800120070003
:1058E00054F0010412E0761EDFF8640AADB2142110
:1058F00001FB05F10844C0F804900320DFF8501ABA
:10590000ADB2142202FB05F288546D1C5DE000204C
:10591000DFF83C1AADB2142202FB05F28854DFF81E
:10592000300AADB2142101FB05F10844C0F804901F
:10593000DFF81C0AADB2142101FB05F1084410F197
:105940001002DFF80C0AADB2142101FB05F1084486
:1059500010F108014846FFF7A4FD54F002046D1C45
:1059600033E0FFB2002F1CD00220DFF8E419ADB203
:10597000142202FB05F28854DFF898070068DFF86C
:10598000D019ADB2142202FB05F211444860022086
:10599000DFF8BC19ADB2142202FB05F211440881F4
:1059A0006D1CDFF87007C0F800900022DFF82C1C97
:1059B0004846FFF776FDDFF85C078088022801D1B2
:1059C000042000E008200443FFE718F1010835E750
:1059D000B6B2022E01DA002004002000C0B2BDE8F9
:1059E000F08770B582B004000D000220A075002081
:1059F00000900423221D2900DFF8640507F0A9FFA9
:105A00000600002E01D1002000E00E2076BD70B50A
:105A100082B004000D002069002801D0032000E0BE
:105A20000120A07500200090042314F10C0215F150
:105A30000801DFF82C0507F08CFF0600002E01D1CD
:105A4000002000E00E2076BD70B582B004000D008D
:105A50002078032801D1052000E00620A075002051
:105A60000090042314F10802291DDFF8F40407F064
:105A700070FF0600002E01D1002000E00E2076BD50
:105A800070B582B004000D00002000900423DFF800
:105A9000E82B2100DFF8C80407F05BFF0600002EAA
:105AA00001D00E2009E00120DFF8A418ADB21422C5
:105AB00002FB05F211440874002076BD7FB5040096
:105AC00001A80021002200230EC00C38E0680190DC
:105AD000694601A8FFF7F0FD00280BD0029EB088B0
:105AE000E08030882081BDF800100298FFF7C8FFE1
:105AF000050001E00A200500280004B070BD2DE972
:105B0000F04184B00400DFF8B83B6A460021A01DD4
:105B1000FFF710FE0500002D07D1DFF8A40B8188E8
:105B20000198FFF7ADFF050008E008260027DFF821
:105B3000908B3A0031004046FEF704FF280004B085
:105B4000BDE8F08170B582B004000D000120A075A1
:105B500000200090E0888300226915F10C01DFF835
:105B6000000407F0F6FE0600002E01D1002000E040
:105B70000E2076BDDFF89C070089401CDFF89417E3
:105B800008810020DFF88C1748800020DFF8841798
:105B90000873002080B2022812DADFF8B41780B24E
:105BA000142202FB00F2895C002901D1012100E0EE
:105BB0000021DFF8602780B202449172401CE9E7BF
:105BC000704710B401000020002292B2022A26DAA7
:105BD000DFF8403792B213449B7A002B1DD000238C
:105BE000DFF8304792B21444A372DFF8643792B200
:105BF000142404FB02F42344DB68002B0DD1DFF8EE
:105C0000503792B2142404FB02F423441B7C002B73
:105C100003D00A800122100001E0521CD5E7C0B277
:105C200010BC704780B50520DFF8E8160870022028
:105C3000DFF8E014888000230122DFF8D80401682F
:105C4000DFF8380A07F0C5FE02BD38B5DFF8C40634
:105C50004588DFF8F003ADB2142101FB05F10844DB
:105C6000C068002813D10420DFF8A81608700023AC
:105C70000122DFF8D003ADB2142101FB05F1084485
:105C80004168DFF8F80907F0A4FE040002E0FFF71E
:105C9000C9FF0400200032BD70B582B0DFF8740681
:105CA0004468DFF870040068DFF86814898800EB46
:105CB00081056088C61C0320DFF858160870002094
:105CC0000090B6B2B300DFF84C0642682900A44841
:105CD00007F03FFE76BD10B5DFF83C1ADFF83C0A4E
:105CE0004088FFF7ACFC002803D0FFF7D5FF040085
:105CF00002E0FFF7AAFF0400200010BD80B50620D7
:105D0000DFF810160870CF48DFF80816498814220B
:105D1000514308444068FFF71FFC02BD80B50720CF
:105D2000DFF8F01508700020DFF8E8154860FFF78D
:105D300005FC02BD80B5DFF8E809FFF742FF002847
:105D40000ED10020DFF8CC1508700020DFF8C41554
:105D500048800020DFF8BC15486041F61D5001E086
:105D6000FFF7B9FF02BDDFF8AC0540684188C91CE8
:105D7000DFF8A02392888A18DFF898339A8070475A
:105D800010B4DFF890030068AE49DFF88825528828
:105D900014235A4311444968DFF878231160A94954
:105DA000DFF87025528814235A4311444860DFF805
:105DB00064138988A34ADFF85C355B881424634345
:105DC0001A4411810221DFF84C23918010BC7047E6
:105DD00080B5DFF84005007800280AD003280FD0EE
:105DE000042814D0052819D0062817D007281AD05F
:105DF0001EE0FFF7BFFE0120DFF81815087017E05E
:105E0000FFF7B1FF0220DFF80C15087010E0FFF774
:105E1000B7FF0620DFF8FC14087009E00720DFF860
:105E2000F414087004E00120DFF8E8140870FFE7BC
:105E300001BD0000503E0020F8B504000D000F2603
:105E4000002C05D00020DFF8DC184860012085E038
:105E50002879002805D002283AD008D3032845D055
:105E600073E001202871FFF769FB06006DE0002751
:105E7000002080B202281CDA724980B2142202FB90
:105E800000F2895C022912D100216E4A80B21423EB
:105E900003FB00F3D15401210F006A4980B21422A0
:105EA000504308444068FFF757FB060001E0401CE0
:105EB000DFE7FFB2002F0AD10120DFF86818087071
:105EC0000020DFF86018486041F61D5046E03CE0D5
:105ED0000020287102208F498880002301228D48EC
:105EE00001681F4807F075FD06002EE000202871AC
:105EF00088480068FFF730FB0600DFF81804408888
:105F0000844909684F4A80B2142303FB00F31A4402
:105F10005268804B1A604B4A80B2142303FB00F393
:105F20001A4451607B4A9288464B80B2142707FB83
:105F300000F73B441A810222764B9A800022414BA3
:105F400080B2142778431A54FFE7002E05D00020B2
:105F5000DFF8D01748600E2000E00020F2BD0000FE
:105F6000CC210020DEC0ADDE2DE9F04104000D00A3
:105F70003448A98A1422514300EB0108002C05D0B3
:105F8000E9884046FFF7D1FA012056E0D8F804002E
:105F9000B8F8081000EB81000700A87D00281BD08E
:105FA00002281FD02AD3042804D021D3062837D0B2
:105FB0002AD339E00020DFF870174860A869DFF8BD
:105FC00068170860DFF86417DFF85C07FFF774FBF9
:105FD000002801D10A2030E039002800FFF701FD38
:105FE000060023E039002800FFF711FD06001DE040
:105FF00039002800FFF7A6FD060017E03900280049
:10600000FFF722FD060011E00620A875DFF81C0747
:106010000188DFF814074068FFF732FD060005E04D
:1060200041F61D50060001E00F200600002E03D0AF
:10603000E9884046FFF779FA3000BDE8F0810000BA
:10604000FE011EF1843C002070B504000D00002C00
:1060500001D001201EE02879002803D0022812D0A8
:1060600007D314E0022028712800FFF727FD06005F
:106070000FE02800FFF743FD06000A2E02D141F68B
:106080001D50060005E041F61D50060001E00F20FE
:106090000600300070BD38B50400002C01D001208E
:1060A00033E09C48007B002803D000209949087306
:1060B00001E0FFF78DFE9748007801280AD00228FA
:1060C0000CD003280ED0042810D0062812D00728A0
:1060D00014D017E0FFF72EFE050015E0FFF7FBFDDB
:1060E000050011E0FFF7D8FD05000DE0FFF7ADFD5D
:1060F000050009E0FFF702FE050005E0FFF70EFED0
:10610000050001E00F200500280032BDE83F002017
:10611000002D0300703F0020082D0300F0B585B06E
:106120000400DFF80C060068002806D1DFF804063A
:10613000FFF75DFBDFF8F8150860DFF8F40500688D
:106140000078012809D025D303280ED00DD30528C7
:1061500013D012D3062818D01CE0DFF8D40501684C
:106160002000FFF769FE040016E0DFF8C4050168AF
:106170002000FFF7F9FE04000EE0DFF8B405016827
:106180002000FFF761FF040006E02000FFF783FF17
:10619000040001E00F200400002C26D01425002666
:1061A0006F46320029003800FEF7CCFB41F61D5047
:1061B000844204D1002001900020040000E00194FA
:1061C0006946DFF86C050068FFF787F86846FFF757
:1061D00070F80020DFF858150860DFF85805FFF761
:1061E0000FFBFFF716FB00289BD105B0F0BD80B573
:1061F0000121BA48FFF726F8002802D10020FFF756
:106200008DFF01BD10B504006068FFF787FF10BD6A
:106210002DE9F04F83B004000D0016001F005FF061
:1062200000085FF000093C480078002801D10220F6
:106230006DE0002D01D1052069E028884FF6FF713F
:10624000884202D06888002801D104205FE0686895
:10625000FEF7DEFF002801D1032058E0002E0CD10C
:10626000A86881466946484680B2FFF783F98346AD
:10627000BBF1000F06D0584649E03088ADF8000069
:106280007088814601A8FFF797FA8246BAF1000F9D
:1062900007D1BDF80010484680B2FFF7B4F90820D6
:1062A00035E08AF8007000208AF81600BDF800007A
:1062B000AAF814006868CAF81000FFF7B9F9CAF81C
:1062C0000C002888AAF808006888AAF80400AAF830
:1062D0000690FFB2032F05D104208AF8160020682B
:1062E000CAF81800AAF80A8001A8FFF777FA002C6C
:1062F0000AD000206060DAF80C0020600020A07254
:10630000DFF8180400892081FFF771FF0020BDE845
:10631000FE8F0000703E0020683F002038B504006A
:10632000DFF814040068042802D10C2005000DE0F9
:10633000DFF80804DFF80014096840F82140012163
:10634000DFF8F403FEF78EFF00200500280032BDC1
:10635000843C0020DFF8E8030068DFF8E8130968F0
:10636000DFF8E423126810F1010F01D101FB02F004
:10637000704710B54FF44054FFF7ECFFBF49086178
:10638000BE480069001BBD49C86010BD80B5FFF75D
:10639000F0FF0022DFF8B413B84807F0C9FA02BDD5
:1063A00080B51C238C22DFF8A8133848006808F059
:1063B000B6F801BD70B586B001A8142108F010F937
:1063C000DFF860030078002804D001A8FEF771FF11
:1063D000002058E0DFF87C03FEF764FF002801D0BE
:1063E000002050E0FFF7D2FF0400002C01D0200075
:1063F00049E0FFF7D5FFFFF719FA0500EDB22800D5
:10640000002804D0022802D0062802D00EE00B207B
:1064100039E00120DFF80C1308700020DFF80413C6
:10642000486001A8FEF745FF00202CE06846FFF712
:10643000C3F90600002E01D1082024E001203070AD
:10644000EDB2280001280CD003280AD0052811D06D
:1064500007280FD0092807D00A2808D00B2803D016
:106460000BE00020307108E00320307105E00220CD
:10647000307102E001203071FFE76846FFF7AEF9A6
:10648000FFF7B5FE002006B070BD0000502E0300DF
:1064900070B582B004000D00002C01D0002D01D198
:1064A00005201AE069462000FFF706F9002813D0FE
:1064B00066680121DFF8A002BDF8002014235A43CA
:1064C00010440C30FEF7CEFE2E6060680C30686021
:1064D0000120A072002000E00A2076BDE03F0020ED
:1064E00038B50400002C01D105202EE069462000BB
:1064F000FFF7E2F8002825D0DFF85C02BDF80010B5
:10650000142251430844C068002818D0A07A0028FB
:1065100015D0DFF84402BDF800101422514308449E
:10652000C068401EDFF83012BDF8002014235A4323
:106530001144C8600020A0720020050004E006207D
:10654000050001E00A200500280032BD70B582B0C8
:1065500004000D0073480078002801D1022010E0EB
:10656000002C01D105200CE06946280080B2FFF71D
:1065700001F80600002E03D1BDF8000020806580E0
:10658000300076BD70B5040066480078002801D15F
:10659000022021E0002C01D105201DE020880328E5
:1065A00001DB042018E06C4821881422514300EBE1
:1065B000010670896188C91C88420ADB21886088CD
:1065C000FFF721F8002020800020608000200500D7
:1065D00001E004200500280070BD0000743F002089
:1065E00038B504000D000223002229002000FFF727
:1065F0000FFE32BD70B504000D001600002E01D153
:10660000052005E00223320029002000FFF700FEEC
:1066100070BD38B504000D00002C01D1052005E047
:106620000323002229002000FFF7F2FD32BD38B518
:1066300004003C480078002801D1022019E0A4B2EF
:106640004FF6FF70844201D1042012E06846FFF744
:10665000B3F80500002D01D108200AE005202870BC
:1066600001202871EC806846FFF7B8F8FFF7BFFDFE
:10667000002032BD00000000542E0300CC21002079
:1066800010B582B027480078002801D1022016E01A
:106690006846FFF791F80400002C01D108200EE0B5
:1066A000062020706846FFF799F81C4800780028FB
:1066B00002D0012019490873FFF799FD002016BD8B
:1066C000783F002033B581B014001D002B0022005C
:1066D00002A901A8FFF72EF83EBD31B50C00150048
:1066E0002B00220069460020FFF724F832BD31B5A7
:1066F0000C0015002B00220000216846FFF71AF855
:1067000032BD0200002A01D0002901D1052002E09B
:106710001068086000207047743E0020703E002022
:10672000723E0020683F0020F83E00201A40002002
:10673000EC3F0020F03F0020E43F0020503E0020CE
:106740001410001010000010140000103C2603006C
:106750008C3900206C3F0020843C00200A7B002AFA
:1067600004D04A6802600022027103E00A680260F5
:1067700001220271704738B504000D00207900280D
:1067800004D02900200000F007F803E029002000D1
:1067900000F014F8206832BD10B48A684B680468B1
:1067A0001B1B9A4204D202688B689A18026003E0AD
:1067B0004A6802600022027110BC704710B48A68F7
:1067C00003680C681B1B9A4204D202688B68D21AB9
:1067D000026003E00A6802600122027110BC704787
:1067E0008A88428270474FF6FF724282704770B5C6
:1067F00082B004000D00207D00281BD0AE1D308823
:106800006189884216D17089022813D12068002836
:1068100010D016F10C0001F0B3F8002803D00020CE
:106820008DF8000002E001208DF80000694620008C
:106830002268904773BD70B504000D00002D01D093
:10684000002C00D117E02E002088102804D0112839
:1068500007D050280AD00EE021003000FFF7C0FF1B
:1068600009E021003000FFF7BEFF04E02100300006
:10687000FFF7BDFFFFE770BD2DE9F04F91B00400B9
:106880000D00207D002824D003275FF000080DF1C3
:106890000409424639004846FEF754F89DF80400C2
:1068A00010F0F00050F001008DF804009DF8040095
:1068B00010F00F0050F010008DF80400687B8DF888
:1068C00005009DF8060010F0F90050F002008DF868
:1068D00006001C275FF000080DF12409424639002C
:1068E0004846FEF72FF89DF8240050F002008DF87E
:1068F0002400207D9DF8241060F304118DF82410ED
:1069000000200A9000200C9000200D90207D00288F
:1069100001D001A800E000200E9000200F9001207F
:106920008DF80E0042F61920ADF80C0003275FF039
:106930000008E946424639004846FEF703F8A87BBE
:106940008DF80000E87B8DF801009DF8020010F042
:10695000F90050F002008DF802009DF8020010F0DE
:10696000F7008DF802009DF8020010F0EF008DF89E
:1069700002009DF8020010F0FE008DF80200287B56
:106980008DF809005FF014095FF0000A0DF1100B9B
:10699000524649465846FDF7D5FF03A8049068467D
:1069A00005900120ADF818000020ADF81A00012074
:1069B000ADF81C000DF109000890A31D04AA09A957
:1069C000A088A2DF0600002E01D030006CE0A8688D
:1069D000002866D001208DF80E0042F60810ADF8B0
:1069E0000C0003275FF00008E9464246390048469C
:1069F000FDF7A8FF287C8DF800009DF8010010F03D
:106A0000F0008DF801009DF8010010F00F008DF8E6
:106A100001009DF8020010F0F90050F002008DF81E
:106A200002009DF8020010F0F7008DF802009DF8BA
:106A3000020010F0EF008DF802009DF8020010F047
:106A4000FE008DF80200A9680DF10A0000F0A0FF19
:106A50008DF808005FF014095FF0000A0DF1100BCB
:106A6000524649465846FDF76DFF03A80490684614
:106A700005909DF80800ADF818000020ADF81A0048
:106A8000BDF81800ADF81C000DF10A00089014F1D3
:106A90000E0204A9E088A3DF0600002E03D0300018
:106AA00002E00020E081002011B0BDE8F08F70B559
:106AB00082B004000D00002C01D0002D01D10E2069
:106AC0001CE0286820604FF6FF70608228792075EE
:106AD000FF20207401208DF8020041F60F00ADF870
:106AE0000000221D69460120A0DF0600002E01D013
:106AF000300003E029002000FFF7BEFE76BD2DE93F
:106B0000F24187B00400002C01D10E2049E000259D
:106B10009DF81C00217C884242D008260027E846C8
:106B20003A0031004046FDF70DFF0120ADF80000AE
:106B30000020ADF8020007A801906A46E188608A4B
:106B4000A4DF0500002D08D19DF81C002074608A88
:106B50004FF6FF71884202D120E0280021E0207D1D
:106B600000281BD0102600270DF108083A0031003C
:106B70004046FDF7E7FEE088ADF8080001208DF8FB
:106B80000A00BDF80200ADF80C00684604900198B8
:106B9000059002A9608AA6DF050001E00820050033
:106BA000280008B0BDE8F081012110F01F029140DB
:106BB000DFF82C2940B2430942F823107047012125
:106BC00010F01F029140DFF81C2940B2430942F83F
:106BD00023107047012110F01F029140DFF80829AF
:106BE00040B2430942F823107047012110F01F0200
:106BF0009140DFF8F82840B2430942F8231070476B
:106C000010B440B2002809D54A01DFF8E43840B298
:106C100010F00F04234403F8042C04E04A01DFF8C9
:106C2000D43840B21A5410BC70470000DFF8C818BE
:106C300000283ED0DFF8C428126800BF00BF00BFA4
:106C400000BF00BF00BF00BF00BF8A422FD000BFFF
:106C500000BF00BF00BF00BF00BF00BF00BF00BF3C
:106C600000BF00BF00BF00BF00BF00BF00BF00BF2C
:106C700000BF00BF00BF00BF00BF00BF00BF00BF1C
:106C800000BF00BF00BF00BF00BF00BF00BF00BF0C
:106C900000BF00BF00BF00BF00BF00BF00BF00BFFC
:106CA00000BF00BF00BF00BF00BF00BF00BF401E4D
:106CB000C3D1704710B50400DFF844080460072111
:106CC0001120FFF79DFF10BD80B55FF48030DFF825
:106CD000341808605FF48030DFF82C180860112049
:106CE000FFF783FF1120FFF75FFF0120DFF81C187B
:106CF00008602F20FFF79AFF0120DFF814180870B2
:106D000001BD80B51120FFF75AFF5FF48030DFF836
:106D1000041808605FF48030DFF8FC170860012079
:106D2000DFF8F81708602F20FFF780FF0120DFF859
:106D3000F01708600020DFF8EC1708602F20FFF73D
:106D400075FF0020DFF8C817087001BDDFF8D8070D
:106D500000687047401A20F07F407047DFF8CC177A
:106D60000860704710B4DFF8C8170968002903D11C
:106D7000DFF8BC17086034E0DFF8B4170968096869
:106D80000268914211D3DFF8A81709680968026800
:106D9000891ADFF89C2712681160DFF894170968D8
:106DA000C161DFF88C1708601BE004682300DFF87E
:106DB000804724682100DFF8784724682200002AF1
:106DC00007D014689C4204D214681B1B1100D269BE
:106DD000F5E7002A02D01468E41A14600360C26167
:106DE000C86110BC70472DE9F0410400DFF840078E
:106DF00000680500DFF83807006806003700002F3C
:106E000004D0A74202D03E00FF69F8E7002F01D16D
:106E1000002031E0BE421AD1DFF814070068C069D3
:106E2000DFF80C170860DFF80807006800280ED1AB
:106E30000120DFF8EC1608600020DFF8E816086093
:106E40000120DFF8F01608702F20FFF7EFFE3868FA
:106E50008046F869F061F0690700002F03D03868B8
:106E600018EB00003860DFF8C8060068854201D0E2
:106E7000012000E00020C0B2BDE8F08180B5112003
:106E8000FFF7A8FE01BD80B51420FFF7A3FE01BDEA
:106E900070B504000D00ADB2082D01D1012600E04F
:106EA0000026F6B2002E06D1DFF88C264FF4B7711B
:106EB0000020FDF7F1FC60682168884770BD7CB553
:106EC000040060690090A0690190DFF87026082135
:106ED000684603F07BFA05002E00002E06D0DFF88E
:106EE00058264FF4C1713000FDF7D6FC73BDF8B5DC
:106EF000DFF83C060068002842D000200700FFF7BA
:106F000025FFDFF820160968FFF724FF0600DFF8E9
:106F1000200600680400002C11D0206886420ED3A1
:106F20002068361A2068C7192500E469287C0028E3
:106F3000F1D0002028742800FFF7C1FFEBE7DFF84D
:106F400000060078DFF8FC15097888420FD1DFF8D9
:106F5000F4050078401CDFF8EC150870DFF8E40554
:106F60000078022803D10020DFF8D8150870DFF878
:106F7000D805DFF8D015097840F82170FFF783FFB6
:106F8000F1BD0100DFF8B8050078DFF8B825127808
:106F9000904229D0DFF8A8050078401CDFF8A02532
:106FA0001070DFF89C050078022803D10020DFF87C
:106FB00090251070DFF89005DFF88425127850F8DE
:106FC00022000860DFF85C0500680A681018DFF826
:106FD00054251060DFF84C05006820F07F40DFF892
:106FE00044251060012002E0002008600020704766
:106FF000F0B40023DFF838452468002C25D0DFF8F2
:107000003065366834002668B04203D22668361AE6
:1070100026601AE02668801B2668F3180026266082
:10702000DFF80C6536683500E669DFF804753E6008
:10703000E668002EDED05E1826F07F466660E668C1
:10704000A6601668E6611560D4E7F0BC70472DE9CC
:10705000F04104000025DFF8D80400680600002C89
:1070600008D1DFF8E8040078DFF8E01449788842B6
:1070700000F09480002C03D02700F86904005BE046
:10708000DFF8C804DFF8C414097818225143084413
:1070900010F10408DFF8B4040078401CDFF8AC14E9
:1070A0000870DFF8A8040078DFF8A0148978884217
:1070B00003D10020DFF894140870D8F8040007000A
:1070C00098F8000001281ED021D303280BD01ED22F
:1070D000D8F80400FFF787FE002801D00120050042
:1070E00000203874BBE7DFF848040068002809D0A6
:1070F000DFF83C04006800210174C069DFF8301437
:107100000860F0E7ABE7387C002801D101E0A6E792
:10711000A5E7D8F808007860D8F80C00B860D8F86F
:107120001000F860D8F81400B861DFF8080400789F
:10713000002801D0002078607868DFF8E81309683B
:10714000401A20F07F40DFF80814884209D2DFF8A7
:10715000D40301687868FFF7FDFDB9680818386046
:1071600010E07968DFF8BC030068FFF7F3FD8046A4
:10717000B868804504D2B868B0EB0800386001E018
:1071800000203860002078600020B860012038744A
:107190000020F8613800FFF7E5FD60E7EDB2002D53
:1071A00004D1DFF88C030068B04201D0012000E078
:1071B0000020C0B2BDE8F0812DE9F0470400DFF8FF
:1071C0007003006800283AD0DFF86403006805689F
:1071D000FFF7BCFD0600DFF84C03076839003000FC
:1071E000FFF7B8FD10F10308DFF82403007800284A
:1071F00001D1FFF769FDA84501D2280000E0404613
:10720000C71927F07F473800FFF7A8FDFFF79EFD5D
:10721000814631003800FFF79DFD82463100484627
:10722000FFF798FDC01C82450BD2FFF78FFDFFF7DB
:1072300095FD2F20FFF7FAFCFFF720FE01E0FFF796
:1072400060FDBDE8F087F0B583B000200090002617
:10725000B44800680400B6480068070001A8FFF7BA
:1072600090FE0500EDB2002D06D06A46210001987F
:10727000FFF7BEFE012006000098FFF7E8FE002899
:1072800001D001200600F6B2002E02D03800FFF730
:1072900093FF0020A7490870F7BDAC4948707047BC
:1072A00030B40100A9484078401C02001000A74CEF
:1072B000A478C0B2A04201D1002002001000A34C6B
:1072C0002478C0B2A04201D1002009E00A709F4892
:1072D0009E4C647818256C432044001D0300180060
:1072E00030BC70472DE9F84304000D0016001F0064
:1072F0005FF0000800208DF80000684606F0A0FA54
:107300000DF10100FFF7CCFF8146B9F1000F02D16A
:107310000420804612E0012089F80000C9F80440EA
:10732000FFF714FDC9F80800C9F80C50C9F810603F
:10733000C9F814709DF80100FFF7AFFF9DF8000039
:1073400006F084FAB8F1000F01D1FFF79CFD40462A
:10735000BDE8F283F8B504000D00002600208DF88A
:107360000000684606F06CFA0DF10100FFF798FF87
:107370000700002F02D10420060005E03D707C606C
:107380009DF80100FFF789FF9DF8000006F05EFA06
:10739000002E01D1FFF777FD3000F2BD80B500204F
:1073A0006C49086000206C49086000206B49086047
:1073B00000206B49086000206A49086000206A4983
:1073C0000860FFF794FD01BD80B5FFF73CFF01BDEC
:1073D00080B5FFF796FC00205C49087000205B49EF
:1073E00048700B20594988700020514908600020DE
:1073F000534908700020534908701420FFF7F5FB2B
:1074000007211420FFF7FCFB1420FFF7CDFB002021
:10741000FFF750FCFFF79AFC42490860002002BDCC
:1074200010B4030049488078002801D1082014E0F6
:107430001000002801D107200FE0002B01D1072008
:107440000BE01868007C002801D0082005E01C68CB
:107450000020207461746261002010BC70472DE927
:10746000F04104000D001600A0463848807800283E
:1074700001D108201AE0002C01D1082016E0052DCA
:1074800001D2072012E0D8F81400002801D108200A
:107490000CE098F81100012801D12F0000E000272E
:1074A00033003A0029004046FFF71CFFBDE8F08199
:1074B00038B50400250025488078002801D108202F
:1074C0000CE0002C02D06869002801D1082005E0FA
:1074D0000020287402212800FFF73CFF32BD000085
:1074E00000E100E080E100E000E200E080E200E096
:1074F00018ED00E000E400E00024F4004421002046
:1075000008150140441301400413014000100140DC
:107510002940002048130140081301400410014095
:1075200008100140C43F00200415014040150140EF
:10753000C03F00202A400020B41F0300916E0200CB
:107540002740002028400020103F0020F03100207C
:10755000FFFF7F00401101404411014048110140EC
:107560004C1101400011014004110140172101801C
:107570001721418000210171002141711B2181717E
:107580001B21C17170477CB504000D00DFF8BC03FE
:10759000D0E90023CDE90023A4B205EBC400007BB1
:1075A000ADF80000A4B205EBC400007BADF802000A
:1075B00000226946200080B290DF0600002E0CD029
:1075C0003300A4B22200DFF88813DFF888030088B4
:1075D000000450F00100FCF73FFF73BD2DE9F041BE
:1075E00004000D00AF88BFB204EBC70010F106081D
:1075F000207988F80600E87B012802D0022804D010
:1076000007E02088A8F8000003E06088A8F80000E0
:10761000FFE7B8F80200B8F8001088421CD2B8F8AA
:107620000010380080B29EDF0600002E03D101203A
:1076300088F8050010E0112E03D1012088F804001D
:107640000AE03200DFF81013DFF8080300880004B6
:1076500050F00100FCF7F3FE98F8070098F80610C8
:10766000884204D22100380080B2FFF78CFFBDE8C9
:10767000F08138B504000D00A88804EBC000801D1F
:10768000FFF774FF31BD2DE9FC4104000D00AE8809
:107690006F89B6B204EBC60010F106083800B8F8DE
:1076A000001080B2884201D2380001E0B8F8000032
:1076B000A8F80200B8F80200172801DA172001E044
:1076C000B8F80200A8F802002069002813D098F842
:1076D000050000280FD0DFF88422D2E90001CDE9AF
:1076E0000001ADF80260B8F80200ADF80400694688
:1076F000200022699047002088F80500002088F8C3
:107700000400BDE8F3812DE9F04383B004000D00CF
:10771000AF88B5F80690BFB204EBC70010F10608B9
:107720001FFA89F9B9F1170F02DA5FF01709FFE7BD
:107730004846B8F8001080B2884201D2484601E0BD
:10774000B8F80000A8F80200002088F80400B8F893
:107750000010380080B2ADDF0600002E08D03200E5
:107760007F497C480088000450F00100FCF767FE68
:1077700098F80500002811D1206900280ED0794A18
:10778000D2E90001CDE90001ADF80270B8F80200BD
:10779000ADF804006946200022699047BDE8F783F0
:1077A00070B590B004000D0002A8291D342201F02C
:1077B00063FEBDF80860BDF80C00B6B204EBC6016C
:1077C00048732069002810D06748D0E90023CDE92C
:1077D0000023ADF80260B6B204EBC600407B8DF822
:1077E0000400694620002269904710B070BD2DE961
:1077F000FC4704000D002E1D308804EBC000871DDF
:10780000B6F80480B8794146C9B2884202D297F8E6
:10781000069000E0C146554AD2E90001CDE90001D9
:107820005FFA89F9ADF800905FFA89F9ADF8029036
:1078300000226946308890DF8246BAF1000F08D0F6
:1078400052464B4943480088000450F00100FCF7C1
:10785000F6FDBDE8F38770B504000D00002C01D1E2
:107860000E2011E0256117202080172060801B204A
:1078700020710026002E06D104EBC600801DFFF704
:1078800075FE761CF6E7002070BD2DE9F04104007E
:107890000D002E00A788BFB2002F53D120881028DA
:1078A0000AD011280DD022281FD0232818D03A281A
:1078B0000CD055280FD01DE021003000FFF78EFEC0
:1078C00018E021003000FFF7D4FE13E02100300063
:1078D000FFF7D9FE0EE021003000FFF714FF09E0AA
:1078E00021003000FFF75CFF04E021003000FFF7CB
:1078F0007EFFFFE7BFB206EBC700807A002821D0E9
:10790000BFB206EBC700C188380080B29EDF804658
:10791000B8F1000F0AD10020BFB206EBC701887290
:107920000120BFB206EBC701C8720BE0B8F1110F1E
:1079300008D04246084907480088000450F001007A
:10794000FCF77DFDBDE8F08100000000302D030054
:10795000581C0300EC2100200C220300382D0300EA
:1079600050220300402D0300482D0300502D03003A
:107970007C2103000178407851EA002080B27047F2
:1079800010B504002000FFF7F5FF10F0010010BD56
:10799000F8B504000D0000262878F6B2A055761C34
:1079A0006878F6B2A055761CF6B2022E01D10127F6
:1079B00000E00027FFB2002F04D1044A4721002035
:1079C000FCF76AFF3000C0B2F2BD00004C2003009B
:1079D00038B504000D00280006F006FE2080656022
:1079E00031BDFEE702000A70100080B2000A487044
:1079F0000220704770B504000D00002D01D0012653
:107A000000E00026F6B2002E05D1DFF88C234D21D0
:107A10000020FCF741FF002C01D0012600E00026E9
:107A2000F6B2002E05D1DFF870234E210020FCF7BE
:107A300033FFD5E900012070D5E9000180B2000ACA
:107A40006070D5E90001000CA070D5E90001000EBE
:107A5000E070D5E900012171A8686071A868000A8A
:107A6000A071A868000CE07170BDF8B504000D00AD
:107A70000026002D01D0012700E00027FFB2002FD3
:107A800004D1C54A65210020FCF706FF002C01D077
:107A9000012700E00027FFB2002F04D1BE4A662173
:107AA0000020FCF7F9FE2878F6B2A055761CF6B255
:107AB00004EB06016888FFF795FF80190600F6B20F
:107AC00004EB0601A888FFF78DFF80190600F6B2C7
:107AD00004EB0601E888FFF785FF80190600F6B27F
